:100000000C9430000C94F1040C94F1040C94D10184
:100010000C94F1040C94F1040C94F1040C9443043A
:100020000C94F1040C94F1040C94D2020C94F1049D
:100030000C94F1040C94F1040C94F1040C94F1046C
:100040000C94F1040C94F1040C94F1040C94F1045C
:100050000C94F10400600082800082008C0009F49E
:1000600011241FBECFE5D8E0DEBFCDBFE4E5F0E050
:1000700040E017C0B591A59135912591059107FDF7
:100080000CC095918591EF01F92FE82F05900D9205
:10009000A217B307D9F7FE0104C01D92A217B30738
:1000A000E1F7E036F40731F70E94D9030C94840499
:0400B000F894FFCFF2
:1000B4000FC00E94B20438F00E94B90420F09523C6
:1000C40011F00C94C0040C94EE0411240C94AC04B0
:1000D4000E94000370F3959FC1F3950F50E0551FE4
:1000E400629FF001729FBB27F00DB11D639FAA2789
:1000F400F00DB11DAA1F649F6627B00DA11D661FD8
:10010400829F2227B00DA11D621F739FB00DA11DF8
:10011400621F839FA00D611D221F749F3327A00DB2
:10012400611D231F849F600D211D822F762F6A2F4E
:1001340011249F5750409AF0F1F088234AF0EE0FB3
:10014400FF1FBB1F661F771F881F91505040A9F7E0
:100154009E3F510580F00C94C0040C94AC045F3FA6
:10016400E4F3983ED4F3869577956795B795F7951C
:10017400E7959F5FC1F7FE2B880F911D9695879594
:0401840097F908954A
:1001880080916B0090916C00AC014B5F5F4F2091A8
:1001980065003091660024173507B0F4BC0165503E
:1001A80071096217730780F480916000813071F5DE
:1001B8008091670090916800019719F40E94DE040D
:1001C80008950E94E20408952417350748F40E9410
:1001D800D604109260000E94D2040E94DE040895A2
:1001E80005978217930790F40E94CE0481E08093CC
:1001F80060000E94DA04809167009091680001977E
:0E02080019F40E94DE0408950E94E204089595
:1002160080916200813061F589E690E00E943304A6
:100226006091690070916A0080E090E00E949401FC
:1002360020E030E040EA5BE30E94EA0420E030E0A0
:1002460048EC52E40E94EA040E94A30270936A00FA
:10025600609369008EE690E00E94C5038EE690E00A
:100266000E94420390936C0080936B001092620090
:10027600809169000E9473020E94C4000E94EC03F0
:10028600813021F00E94FE03813039F40E94A404DB
:0C0296001092630082E0809364000895E1
:1002A2000E94D6040E94DA040E94E2048091670050
:1002B20090916800019729F4809165000E94730271
:1002C20002C00E94F3040E94EC03813089F4809101
:1002D2006500909166008B34910550F405969093D9
:1002E200660080936500109263000E94730214C03E
:1002F2000E94FE03813081F4809165009091660036
:100302008432910548F005979093660080936500CA
:10031200109263000E9473026091650080E090E099
:060322000E9494030895FF
:10032800E89409C097FB3EF4909580957095619587
:100338007F4F8F4F9F4F9923A9F0F92F96E9BB273D
:100348009395F695879577956795B795F111F8CFB9
:10035800FAF4BB0F11F460FF1BC06F5F7F4F8F4F24
:100368009F4F16C0882311F096E911C0772321F01A
:100378009EE8872F762F05C0662371F096E8862FB2
:1003880070E060E02AF09A95660F771F881FDAF709
:0A039800880F9695879597F9089550
:1003A2001F920F920FB60F9211242F933F934F93E8
:1003B2005F936F937F938F939F93AF93BF93EF93CB
:1003C200FF938091640081110DC081E080936400ED
:1003D20080E090E00E948F0490E09093660080930A
:1003E200650005C08150823010F410926400FF91C4
:1003F200EF91BF91AF919F918F917F916F915F919B
:100402004F913F912F910F900FBE0F901F90189513
:10041200CF93DF9300D0CDB7DEB7CE0101960E9415
:10042200330469817A8180E090E00E94940123E2A2
:100432003BED49EF5EE30E94EA040E94A3029B01A6
:100442007A83698380E009C0E82FF0E0EE0FFF1F96
:10045200E259FF4F318320838F5F8A30A8F38EE603
:1004620090E00E94420390936C0080936B00109284
:0C04720061000F900F90DF91CF91089572
:10047E0080E00E9422030E947A030E94CA040E9416
:10048E00C6040E9496040E9479040E94AE030E9444
:10049E005F030E94E6041092640080E090E00E94E8
:1004AE008F048F3F51F080E090E00E948F0490E027
:1004BE00909366008093650006C08CE390E0909365
:1004CE006600809365000E9409026091650080E0DD
:0804DE0090E00E9494030895D0
:1004E600CF93DF939DEC899F912D1124D92FD6951B
:1004F600D695D695DD0F2D2F220F220FD20F8D1BED
:10050600D82FC92FC695C695C69581E00E941004BE
:100516008D2F0E949D0481EE94E00197F1F700C0B3
:10052600000082E00E9410048C2F0E949D0481EE40
:1005360094E00197F1F700C00000DF91CF91089594
:100546000E94080388F09F5798F0B92F9927B75152
:10055600B0F0E1F0660F771F881F991F1AF0BA9561
:10056600C9F714C0B13091F00E94AB04B1E0089510
:100576000C94AB04672F782F8827B85F39F0B93F02
:10058600CCF3869577956795B395D9F73EF4909514
:0E0596008095709561957F4F8F4F9F4F089510
:1005A4001F920F920FB60F9211242F933F938F93A4
:1005B4009F938091640081508230B8F480916300ED
:1005C4008F5F80936300982F937051F4209167009C
:1005D4003091680091E029273093680020936700E8
:1005E400853118F081E0809364009F918F913F9151
:0C05F4002F910F900FBE0F901F901895D4
:1006000057FD9058440F551F59F05F3F71F04795C3
:10061000880F97FB991F61F09F3F79F087950895A8
:10062000121613061406551FF2CF4695F1DF08C0C7
:10063000161617061806991FF1CF869571056105E4
:04064000089408957D
:100644008032E0F497B1907E97B997B1892B87B93E
:1006540087B1806487B987B18F7787B987B187B944
:1006640086B1806886B986B1816086B986B18260B8
:1006740086B986B1846086B981E0089580E00895E2
:10068400BC0190E020E030E00BC0E92FF0E0EE0F79
:10069400FF1FE60FF71F40815181240F351F9F5F15
:1006A4009A3098F3ADECBCEC0E9452049695879571
:0A06B4009695879596958795089511
:1006BE008FB58E7F8FBD8FB58D7F8FBD8EB58860C8
:1006CE008EBD8EB58F7E8EBD82E690E09BBD8ABDBF
:1006DE008EB581608EBD8EB58D7F8EBD8EB58460DC
:0606EE008EBD7894089512
:1006F40087B38B7F87BB87B38D7F87BB87B3877FA8
:1007040087BB88B3846088BB88B3826088BB88B3A6
:10071400886088BB789484B7806484BF8BB7806218
:040724008BBF0895EA
:100728008EBB9FBB6DBB0FB607FE05C08FB78F771B
:100738008FBF91E001C090E08CB384608CBB8CB318
:1007480082608CBBE199FECF913019F48FB7806835
:040758008FBF0895B2
:10075C0083B78F7B83BF83B7886083BF83B7816088
:10076C0083BF83B78D7F83BF83B7846083BF8AEFDA
:0E077C008CBF12BE789489B7826089BF089541
:10078A002091610030E0220F331F820F931FFC017A
:10079A0071836083809161008F5F809361008A30EA
:0807AA0011F4109261000895A2
:1007B2000E943F0280916400813021F030F082304B
:1007C20039F0F8CF0E940B01F5CF0E946E04F2CFF0
:0607D2000E945101EFCF6F
:1007D80096B391FB882780F991FD0AC0EBE7F2E90F
:1007E8003197F1F700C00000B19903C081E0089586
:0407F80080E0089500
:1007FC0096B393FB882780F993FD0AC0EBE7F2E9E7
:10080C003197F1F700C00000B39903C081E008955F
:04081C0080E00895DB
:10082000813039F482B3826082BB82B38E7F82BB17
:100830000895823031F482B3816082BB82B38D7FB0
:0408400082BB0895DA
:10084400092E0394000C11F4882352F0BB0F40F4DA
:10085400BF2B11F460FF04C06F5F7F4F8F4F9F4F1A
:020864000895F5
:10086600FC01892B59F096B1906496B9349BFECF62
:1008760084B195B19183808381E0089580E00895E5
:100886001F920F920FB60F9211248F9381E08093DF
:0E08960062008F910F900FBE0F901F9018956B
:1008A400A29FB001B39FC001A39F700D811D1124AD
:0E08B400911DB29F700D811D1124911D08959C
:1008C20085B78F7E85BF85B78F7D85BF85B78F7BC7
:0A08D20085BF85B7806885BF0895D3
:1008DC000E94F3040E94E2040E94D6040E94DA04EF
:0608EC000E946104089562
:1008F2008FEF84BB81B3816081BB81B3826081BB96
:060902000E94A404089508
:10090800EC010E94F8040E94F704CE010E94F90449
:06091800CE010E94F5046F
:0E091E008EBB9FBB8CB381608CBB8DB30895E4
:0E092C0087B3806887BB88B38F7788BB089538
:0E093A00E82FF0E0EE57FF4F808185BB089557
:0E09480082B38E7F82BB82B38D7F82BB089507
:0E095600E894BB2766277727CB0197F9089511
:0E09640000240A9416161706180609060895B0
:0E09720000240A9412161306140605060895B2
:0C09800097F99F6780E870E060E0089540
:08098C0087B3806187BB089569
:0809940087B3806287BB089560
:08099C0088B3806188BB089557
:0809A40088B3806288BB08954E
:0809AC0088B38F7E88BB08951B
:0809B40088B38F7D88BB089514
:0809BC0088B3806888BB089530
:0809C40088B38F7788BB08950A
:0809CC0089B7806189BF08951D
:0809D4000E945A000C94220459
:0609DC009FEF80EC08957E
:0409E2000C94000071
:0409E60015BA0895A1
:0409EA000E9458000F
:0209EE0008956A
:0209F000089568
:0209F200089566
:0A09F4003F065B4F666D7D077F6FC5
:00000001FF
